:100000000C945B000C9430040C945D040C948300FD
:100010000C9483000C9483000C9483000C94D40300
:100020000C9483000C9483000C9483000C94830044
:100030000C9483000C94DC050C9483000C948300D6
:100040000C948A040C9483000C94C2010C94FD015E
:100050000C9483000C9483000C9483000C94830014
:100060000C9483000C94830002000000080002013D
:10007000000003040700000000000000000102046B
:10008000081020408001020408102001020408101A
:100090002004040404040404040202020202020311
:1000A000030303030300000000250028002B0000C9
:1000B0002D02B602F80511241FBECFEFD8E0DEBF37
:1000C000CDBF11E0A0E0B1E0E4ECFCE002C005909F
:1000D0000D92AC32B107D9F722E0ACE2B1E001C039
:1000E0001D92AA3EB207E1F710E0C6EBD0E004C0D3
:1000F0002297FE010E945C06C03BD107C9F70E940F
:10010000C2020C9460060C940000FC01818D228DCB
:1001100090E0805C9F4F821B91098F73992708950F
:10012000FC01918D828D981731F0828DE80FF11DC1
:10013000858D90E008958FEF9FEF0895FC01918DDC
:10014000828D981761F0828DDF01A80FB11D5D9639
:100150008C91928D9F5F9F73928F90E008958FEFA7
:100160009FEF089583E292E0892B49F080E090E0D0
:10017000892B29F00E94230281110E94000008951A
:10018000FC01848DDF01A80FB11DA35ABF4F2C9134
:10019000848D90E001968F739078848FA689B789BB
:1001A0002C93A089B1898C9180648C93938D848DDC
:1001B000981306C00288F389E02D80818F7D8083AB
:1001C0000895CF93DF93EC01888D81110BC01BC084
:1001D0000FB607FC09C0808185FF06C00EC0CE01A6
:1001E0000E94C000EA89FB89808185FDF1CFA88942
:1001F000B9898C9186FFECCF06C0A889B9898C910A
:1002000085FFF2CFECCFDF91CF9108950F931F932D
:10021000CF93DF93EC01162F9B8D8C8D981324C008
:10022000E889F989808185FD26C01EC00FB607FCCC
:1002300008C0E889F989808185FF03C0CE010E944A
:10024000C0009C8D091791F38B8DFE01E80FF11D05
:10025000E35AFF4F10830B8FEA89FB89808180620C
:10026000808381E0888F0FC08B8D90E001968F7323
:100270009078082FE6CFEE89FF896083E889F989B5
:1002800080818064808381E090E0DF91CF911F9135
:100290000F910895CF92DF92EF92FF921F93CF9329
:1002A000DF93EC016A017B01122FE889F98982E072
:1002B0008083411581EE580761057105B1F060E05A
:1002C00079E08DE390E0A70196010E943806BA011B
:1002D000A9014150510961097109769567955795B2
:1002E0004795411580E15807A8F0E889F9891082FF
:1002F00060E874E88EE190E0A70196010E9438065C
:10030000BA01A901415051096109710976956795B2
:1003100057954795EC85FD855083EE85FF85408395
:10032000188EEC89FD891083EA89FB8980818061C0
:100330008083EA89FB89808188608083EA89FB89E0
:10034000808180688083EA89FB8980818F7D8083BA
:10035000DF91CF911F91FF90EF90DF90CF900895A4
:10036000FC01238D348D231738F08FE390E0821B3E
:100370009109830F911D0895832F90E0821B9109AD
:10038000019708951F920F920FB60F9211242F9389
:100390008F939F93AF93BF93EF93FF93E0913C01B3
:1003A000F0913D01808182FD17C0E0914201F09102
:1003B00043012081809145018F5F8F7390914601A9
:1003C000891779F0E5E4F1E0A081B0E0A45DBE4FCB
:1003D0005D962C93808305C0E0914201F09143012A
:1003E0008081FF91EF91BF91AF919F918F912F915C
:1003F0000F900FBE0F901F9018951F920F920FB67F
:100400000F9211242F933F934F935F936F937F939A
:100410008F939F93AF93BF93EF93FF938CE291E001
:100420000E94C000FF91EF91BF91AF919F918F917A
:100430007F916F915F914F913F912F910F900FBEE0
:100440000F901F9018958CE291E00E94850021E0AA
:10045000892B09F420E0822F089510922F01109229
:100460002E0188EE93E0A0E0B0E0809330019093FD
:100470003101A0933201B093330189E191E090936F
:100480002D0180932C0185EC90E0909339018093AD
:10049000380184EC90E090933B0180933A0180EC2A
:1004A00090E090933D0180933C0181EC90E090932B
:1004B0003F0180933E0182EC90E090934101809354
:1004C000400186EC90E090934301809342011092AA
:1004D000450110924601109247011092480108957B
:1004E000AF92BF92CF92DF92EF92FF920F931F9342
:1004F000CF93DF935C017B01C0E0D0E000E010E02F
:10050000F501EC0FFD1F4AE050E06281C7010E9437
:1005100096036C016EE2C7010E9404038C0D9D1DC1
:10052000080F191F2196C330D10551F74AE050E05A
:10053000F5016581C7010E949603800F911FDF912D
:10054000CF911F910F91FF90EF90DF90CF90BF90D0
:10055000AF9008950F93FC0189E291E0918380832D
:1005600062834383248305830F9108950F9300E0F2
:1005700020E040E060E089EC91E00E94AA020F9147
:10058000089508950E94D4040E94C1020E94C205E9
:100590000E94730582EB90E0892B29F00E94B20043
:1005A0000E947305FBCF0E947305FDCFCF92DF92AF
:1005B000EF92FF920F931F93CF93DF936C0141153E
:1005C0005105B1F0062F172FEA01E12CF12CD801CB
:1005D0006D918D01D601ED91FC910190F081E02D9E
:1005E000C6010995E80EF91E2197209781F702C0F0
:1005F000E12CF12CC701DF91CF911F910F91FF905A
:10060000EF90DF90CF900895DC01ED91FC91019087
:10061000F081E02D099508956F927F928F929F92BD
:10062000AF92BF92CF92DF92EF92FF920F931F9300
:10063000CF93DF93CDB7DEB7A1970FB6F894DEBFA7
:100640000FBECDBF6C01742E352F862F972F622ED3
:1006500019A221E0261520F00F2EFAE06F2EF02DC2
:100660007E01A1E2EA0EF11C862C912CA12CB12C6A
:10067000672D732FA50194010E943806E22F732F76
:10068000022F132F242F352FF72D6E9EF0191124D2
:10069000B1E0EB1AF108FA3010F4F05D01C0F95C3A
:1006A000D701FC93012B022B032B29F07E2E372F31
:1006B000842F952FDDCFE114F10491F0F701019023
:1006C0000020E9F73197AF014E195F09D601ED918E
:1006D000FC910280F381E02DB701C601099502C0AB
:1006E00080E090E0A1960FB6F894DEBF0FBECDBFBC
:1006F000DF91CF911F910F91FF90EF90DF90CF90FE
:10070000BF90AF909F908F907F906F90089521152C
:10071000310549F4DC01ED91FC910190F081E02D6F
:10072000642F099508950E940C0308959A01462F9D
:1007300050E060E070E00E9487030895813039F056
:1007400018F0823051F0089510926E000895EFE68F
:10075000F0E080818D7F80830895E0E7F0E0808184
:100760008D7F808381E08093B000E1EBF0E08081B9
:10077000887F846080831092B3000895CF93C82F40
:10078000809100018C1307C0E8E6F0E084919FEFB0
:100790009093000101C08FEF0E949E0360E08C2FB8
:1007A0000E943E05CF9108951F920F920FB60F92AF
:1007B00011242F933F934F935F936F937F938F9366
:1007C0009F93AF93BF93EF93FF938091D20190914A
:1007D000D301A091D401B091D501892B8A2B8B2B09
:1007E00051F18091CF01E091D001F091D101908140
:1007F000892780838091D2019091D301A091D40167
:10080000B091D501181619061A061B06C4F480917A
:10081000D2019091D301A091D401B091D50101975B
:10082000A109B1098093D2019093D301A093D4017F
:10083000B093D50104C0809100010E94BE03FF91D6
:10084000EF91BF91AF919F918F917F916F915F9148
:100850004F913F912F910F900FBE0F901F901895C1
:100860001F920F920FB60F9211242F933F934F9325
:100870005F936F937F938F939F93AF93BF93EF9308
:10088000FF938091D6019091D701892B29F0E091B7
:10089000D601F091D7010995FF91EF91BF91AF91EA
:1008A0009F918F917F916F915F914F913F912F9188
:1008B0000F900FBE0F901F9018951F920F920FB6BA
:1008C0000F9211242F933F934F935F936F937F93D6
:1008D0008F939F93AF93BF93EF93FF938091D80132
:1008E0009091D901892B29F0E091D801F091D9019B
:1008F0000995FF91EF91BF91AF919F918F917F915A
:100900006F915F914F913F912F910F900FBE0F907C
:100910001F9018951F920F920FB60F9211242F93CC
:100920003F938F939F93AF93BF938091DB019091FF
:10093000DC01A091DD01B091DE013091DA0123E00C
:10094000230F2D3720F40196A11DB11D05C026E807
:10095000230F0296A11DB11D2093DA018093DB01C4
:100960009093DC01A093DD01B093DE018091DF0163
:100970009091E001A091E101B091E2010196A11DE9
:10098000B11D8093DF019093E001A093E101B0934A
:10099000E201BF91AF919F918F913F912F910F9065
:1009A0000FBE0F901F901895789484B5826084BD17
:1009B00084B5816084BD85B5826085BD85B5816063
:1009C00085BDEEE6F0E0808181608083E1E8F0E0C3
:1009D0001082808182608083808181608083E0E8F2
:1009E000F0E0808181608083E1EBF0E080818460D1
:1009F0008083E0EBF0E0808181608083EAE7F0E0D3
:100A00008081846080838081826080838081816036
:100A100080838081806880831092C1000895833034
:100A200069F028F48130B1F08230C1F00895873048
:100A3000C9F08830E9F0843001F506C0E0E8F0E064
:100A400080818F7780830895E0E8F0E080818F7D5A
:100A50008083089584B58F7784BD089584B58F7D94
:100A600084BD0895E0EBF0E080818F778083089566
:100A7000E0EBF0E080818F7D808308951F93CF931A
:100A8000DF93C62F282F30E0F901E759FF4F8491FB
:100A9000F901E358FF4F1491F901EF56FF4FD4913C
:100AA000DD23C9F081110E940F052D2F30E0F901DF
:100AB000EE0FFF1FEB55FF4FA591B4918FB7F89440
:100AC000C11105C0EC9110951E231C9303C0EC913D
:100AD0001E2B1C938FBFDF91CF911F910895089516
:100AE0000895089508958091E801813059F5109294
:100AF000E9018091E601882319F180E09091E701F6
:100B0000E091E401F091E50124E0829FE00DF11D08
:100B10001124892F90E0608171810E942406892B25
:100B200031F40280F381E02D309709F0099580912E
:100B3000E9018F5F8093E9019091E6018917F0F256
:100B40001092E801089580E48AB980E884BD81E0CC
:100B500080936E00789485E085BD0895F894109296
:100B60008000E1E8F0E010828EE19BEF9093850039
:100B70008093840081E080936F0080818460808313
:100B8000789408951092E8011092E7011092E9011B
:100B900081E091E09093E5018093E40126E040E05C
:100BA00052EC61E070E08CE291E00E944A010E9408
:100BB000A3050E94AE0508951F920F920FB60F92E3
:100BC00011248F939F938EE19BEF909385008093E8
:100BD000840081E08093E8018091E7018F5F80933A
:100BE000E7019F918F910F900FBE0F901F90189566
:100BF00085E08093E60108958091EA01882301F160
:100C00008CE291E00E94B0011816190684F4E0917C
:100C1000EA01F0E0E551FE4F60818CE291E00E9434
:100C200006018091EA0181508093EA010895809144
:100C3000E30161E0681B6093E30186E00E943E05EA
:100C400008950E94FC050895AA1BBB1B51E107C033
:100C5000AA1FBB1FA617B70710F0A61BB70B881F4C
:100C6000991F5A95A9F780959095BC01CD010895DB
:100C7000A1E21A2EAA1BBB1BFD010DC0AA1FBB1FA0
:100C8000EE1FFF1FA217B307E407F50720F0A21B12
:100C9000B30BE40BF50B661F771F881F991F1A947F
:100CA00069F760957095809590959B01AC01BD01A9
:100CB000CF010895EE0FFF1F0590F491E02D0994E8
:040CC000F894FFCFD6
:100CC400FF01006F05020070050300710505002196
:100CD4000632007205000000000601D60285009E5F
:0C0CE400009000E1000000000070020021
:00000001FF
